:100000000C9489000C94E20A0C94E20A0C94E20A23
:100010000C94E20A0C94E20A0C94E20A0C94E20AB0
:100020000C94E20A0C94E20A0C94E20A0C94E20AA0
:100030000C94E20A0C94E20A0C94E20A0C94E20A90
:100040000C94E20A0C94E20A0C94E20A0C94E20A80
:100050000C94E20A0C94E20A0C94E20A0C94E20A70
:100060000C94E20A0C94E20A0C94E20A0C94E20A60
:100070000C94E20A0C94E20A0C94E20A0C94E20A50
:100080000C94E20A0C94E20A0C94E20A0C94E20A40
:100090000C94E20A0C94E20A0C94E20A0C94E20A30
:1000A0000C94E20A0C94E20A0C94E20A0C94E20A20
:1000B0000C94E20A0C94E20A0C94E20A0C94E20A10
:1000C0000C94E20A0C94E20A0C94E20A0C94E20A00
:1000D0000C94E20A0C94E20A0C94E20A0C94E20AF0
:1000E0000C94E20A0C94E20A0C94E20A0C94E20AE0
:1000F0000C94E20A4000400280400240250015D2E4
:100100004025402780402740290015F54029402BF5
:100110008000809101108F7C8060806898ED94BF92
:100120008093011011241FBECFEFCDBFDFE7DEBFEC
:10013000E4EFF0E041E019C0B791A7913791279122
:10014000079107FD0EC097918791EF01F92FE82FD6
:100150000BBF07900D92A217B307D9F7FE011BBE84
:1001600004C01D92A217B307E1F7E131F40721F7AC
:0C0170000E941E070C946E0AF894FFCF4A
:10017C0048656C6C6F0074656D70203D2025640AB9
:07018C0000542564430A0042
:10019400AEE0B0E0E0EDF0E00C94D1094C016B016D
:1001A40019821A828FEF9FEF8B839C831D821E829C
:1001B4004F83588729873A87A12CB12CD6016D909B
:1001C4007C90F301EA0DFB1D808181110FC0D601E3
:1001D400ED93FC938081853209F0D3C13F01BFEFD9
:1001E4006B1A7B0AF6016082718219C0853279F339
:1001F400B401082E000C990B0E948E064FEFA41A2E
:10020400B40ADCCF8C32ACF08D32F9F489819A8156
:10021400816089839A833196D601ED93FC93D6014C
:10022400ED91FC9180818B3269F789819A81846098
:10023400F0CF803221F489819A818860EACF8332B9
:1002440051F489819A818061E4CF803321F48981DA
:100254009A818260DECFB701C6010E94AC088D830B
:100264009E8397FF0BC029813A81B1E02B27298314
:100274003A839195819591098D839E8389819A8191
:1002840080FF03C08D7F89839A83D601ED91FC9111
:10029400119780818E3249F43196ED93FC93B70126
:1002A400C6010E94AC088B839C83C6010E94750919
:1002B400582ED601ED91FC918081082E000C990BEB
:1002C4000E94950A893609F443C084F4833609F4FC
:1002D40002C134F4853209F427C18136E1F030C11A
:1002E4008436B1F188360CF4D9C02AC1803709F4B8
:1002F4009AC03CF48E3609F4BCC08F3609F461C050
:100304001FC1853709F440C0883709F476C08337A4
:1003140009F016C1F3C0652D70E0A701CE010B965C
:100324000E940000892B09F426C1D601ED91FC91AD
:100334001197CF0101968D939C932081AE01455F67
:100344005F4FBE016F5F7F4FC4010E94000010C168
:10035400652D70E0970141E050E0CE010B960E94BC
:100364000105892B09F407C1F60180819181019669
:1003740080839183AE01455F5F4FBE016F5F7F4F06
:10038400C4010E94B603F4C0652D70E0970140E0FB
:1003940050E0CE010B960E940105892B09F4EBC0B5
:1003A400D6018D919C91119701968D939C93AE01EA
:1003B400455F5F4FBE016F5F7F4FC4010E94D70648
:1003C400D7C0652D70E0970140E050E0CE010B9658
:1003D4000E940105892B09F4CEC0F6018081918128
:1003E400019680839183AE01455F5F4FBE016F5FCD
:1003F4007F4FC4010E943506BBC0652D70E0970194
:1004040040E050E0CE010B960E940105892B09F4CF
:10041400B2C0D601ED91FC911197CF0101968D9355
:100424009C9320811CC0970140E050E060EF70E095
:10043400CE010B960E940105892B09F49CC0F6019C
:10044400808191810196808391838B859C85892B02
:1004540029F420E030E04FE150E484C028E7AE0105
:10046400455F5F4FBE016F5F7F4FC4010E94C802AA
:100474007FC0A501400F511F652D70E09701CE018B
:100484000B960E940000892B09F475C0D6018D914A
:100494009C91119701968D939C9373C0652D70E088
:1004A400A701CE010B960E940000892B09F463C0BA
:1004B400D601ED91FC911197CF0101968D939C93F8
:1004C4002081AE01455F5F4FBE016F5F7F4FC40166
:1004D4000E9400004DC0B0E85B124DC0F60180815F
:1004E4009181019680839183D701ED91FC911197BD
:1004F400CF0102968D939C93808120C0B0E85B125B
:100504003AC0F60180819181019680839183D7015D
:10051400ED91FC911197CF0102968D939C934081AC
:10052400518120E030E01EC0B0E85B1224C0F60127
:10053400208131812F5F3F4F208331838B870DC012
:1005440085E28B87D6016D927C9219821A821D8274
:100554001E828FEF9FEF8B839C8321E030E0AE01FE
:10056400455F5F4FBE016F5F7F4FC4010E94070963
:100574008A0D9B1D07C0F6018081918101968083BD
:0C0584009183C5012E96EFE00C941A0A3A
:10059000AFE0B0E0EEECF2E00C94CE091C016B0190
:1005A00049835A832B83FB018281938184809580C8
:1005B00000811181A680B78097FD02C00D7F02C027
:1005C00081E090E0E981FA8140805180628073800F
:1005D0009801207133272C833D83740104FF08C0E8
:1005E000411451046104710419F032E0E31AF10876
:1005F000F801E870FF27EE83FF8303FF03C0F1E0FB
:10060000EF1AF108F6010084F185E02D3197EE87AD
:10061000FF87EA0DFB1D10829C012E193F092887D8
:100620003987C801827099278A879B87EB818E2F33
:10063000EE0F990B9C01215431092C873D872E85A3
:100640003F852230310530F48C819D81892B09F062
:1006500042C05CC0411451046104710461F18E8593
:100660009F8501978E879F87C2018F7099278A3057
:10067000910514F4C09602C0895A9F4FEC85FD8500
:100680007A9748F49C012062215631092A313105BC
:1006900010F40E948C0AEE85FF85EA0DFB1D808315
:1006A000F1E0EF1AF10884E0769467945794479448
:1006B0008A95D1F7C4CF888599858E0D9F1D181610
:1006C00019066CF21E141F040CF0BECFEA85FB85E0
:1006D000EF2B29F6B9CFE981FA8180819181A2813E
:1006E000B381892B8A2B8B2B89F0EE85FF85EA0D50
:1006F000FB1D31972B8120838E859F8502978E87E6
:100700009F87FC01EA0DFB1D80E38083EE81FF8162
:10071000EF2B59F02E853F85215031092E873F87D9
:10072000F901EA0DFB1D80E28083F60140855185C9
:10073000415051092E853F85421B530BB9016A0D6B
:100740007B1D9401C1010E9415089C01F10180816B
:10075000918190FF06C0F6018281938182179307F1
:0C0760000CF4C9012F96E2E10C94170A7A
:10076C00A2E0B0E0ECEBF3E00C94CE093C016B01A1
:10077C00FB0122813381A480B580808191818983A2
:10078C009A8386809780FA01208031804280538042
:10079C00B201A10157FE07C044275527BA014219DF
:1007AC0053096409750937FD03C08D7F89839A83CA
:1007BC00950157FC05C0898182FD02C083FF02C0F0
:1007CC0021503109CE0101967C010AE010E0C601EE
:1007DC000E94D00557FC03C0298122FF0AC0019753
:1007EC00F401E80FF91F57FC02C02BE209C02DE2FF
:1007FC0007C023FF06C00197F401E80FF91F20E2A0
:10080C00208309811A81F601408551854150510997
:10081C00481B590BB401680F791F9501C3010E9445
:10082C0015089C01F3018081918190FF06C0F601AF
:10083C0082819381821793070CF4C9012296E2E11D
:04084C000C94170AE7
:1008500010C00E94AB0A58F00E94A40A40F029F48C
:100860005F3F29F00C94D10A51110C94B30A0C94F7
:10087000DF0A0E94310968F39923B1F3552391F3FC
:10088000951B550BBB27AA2762177307840738F0FF
:100890009F5F5F4F220F331F441FAA1FA9F335D05C
:1008A0000E2E3AF0E0E832D091505040E695001C10
:1008B000CAF72BD0FE2F29D0660F771F881FBB1FCA
:1008C000261737074807AB07B0E809F0BB0B802DA8
:1008D000BF01FF2793585F4F3AF09E3F510578F0D4
:1008E0000C94D10A0C94B30A5F3FE4F3983ED4F31E
:1008F000869577956795B795F7959F5FC9F7880FA8
:10090000911D9695879597F90895E1E0660F771FF9
:10091000881FBB1F621773078407BA0720F0621B8A
:0E092000730B840BBA0BEE1F88F7E095089559
:10092E000FC00E94A40A38F00E94AB0A20F0952353
:10093E0011F00C94D10A0C94DF0A11240C94B30A12
:10094E000E94310970F3959FC1F3950F50E0551F2A
:10095E00629FF001729FBB27F00DB11D639FAA2706
:10096E00F00DB11DAA1F649F6627B00DA11D661F55
:10097E00829F2227B00DA11D621F739FB00DA11D76
:10098E00621F839FA00D611D221F749F3327A00D30
:10099E00611D231F849F600D211D822F762F6A2FCC
:1009AE0011249F5750409AF0F1F088234AF0EE0F31
:1009BE00FF1FBB1F661F771F881F91505040A9F75E
:1009CE009E3F510580F00C94D10A0C94B30A5F3F00
:1009DE00E4F3983ED4F3869577956795B795F7959A
:1009EE00E7959F5FC1F7FE2B880F911D9695879512
:0409FE0097F90895C8
:100A0200CF93DF93DC01F90168387105F1F05CF4F2
:100A12006138710561F164387105A1F160387105C1
:100A220009F051C02FC0603C710509F441C0603F1C
:100A32007105F1F1603A710509F045C0C081D181BB
:100A4200CE0102968083918325C0C081D181CE01DF
:100A5200029680839183452B39F04881042E000C45
:100A6200550B660B770B1CC0488150E029C0C08132
:100A7200D181CE01049680839183488159816A8114
:100A82007B810EC0C081D181CE0102968083918389
:100A9200452BA1F048815981052E000C660B770B7E
:100AA2004D935D936D937C93139781E090E00DC01D
:100AB200C081D181CE010296808391834881598180
:100AC20060E070E0EDCF80E090E0DF91CF9108959B
:100AD20011C00E94A40A38F00E94AB0A20F039F437
:100AE2009F3F19F426F40C94DF0A0EF4E095E7FB1D
:100AF2000C94D10AE92F0E94310958F3BA17620700
:100B020073078407950720F079F4A6F50C94B20ACE
:100B12000EF4E0950B2EBA2FA02D0B01B901900116
:100B22000C01CA01A0011124FF27591B99F0593F5A
:100B320050F4503E68F11A16F040A22F232F342FA2
:100B42004427585FF3CF469537952795A795F040F0
:100B52005395C9F77EF41F16BA0B620B730B840B05
:100B6200BAF09150A1F0FF0FBB1F661F771F881FBD
:100B7200C2F70EC0BA0F621F731F841F48F4879515
:100B820077956795B795F7959E3F08F0B0CF939507
:0E0B9200880F08F09927EE0F97958795089524
:100BA000A0E0B0E0E6EDF5E00C94D009DC0128010E
:100BB0001696AD90BC901797F7018081918112969F
:100BC000ED91FC9113971896CD91DC91199721978F
:100BD000F7FF02C0E1E0F0E0CA0DDB1D18826901F9
:100BE000A1E0B0E08F01021B130B4C01F2E08F2259
:100BF0009924052C000C66087708CE018A199B09F8
:100C0000CA15DB0519F1411551056105710589F01A
:100C1000CB01BA01A30192010E945309CA01A62F78
:100C2000B72F605D6A9341E0C41AD108A901BC01E5
:100C3000E4CF98012C0D3D1D121613064CF31C1425
:100C40001D0434F48114910419F702C080E090E08F
:100C5000AB2B31F4F701208131812F7E208331834A
:0A0C6000CDB7DEB7E0E10C94190AED
:100C6A00A2E0B0E0EBE3F6E00C94D2094C016B0190
:100C7A00FB0122813381648075808081918189831F
:100C8A009A83A680B78037FD03C08D7F89839A83B4
:100C9A00FA014081518162817381CE0101967C0102
:100CAA0008E010E09301C6010E94D005298124FFC3
:100CBA0006C00197F501E80FF91F20E32083298177
:100CCA0023FF06C00197F501E80FF91F20E22083F0
:100CDA0009811A81F6014085518541505109481B05
:100CEA00590BB501680F791F9301C4010E941508B9
:100CFA009C01F4018081918190FF06C0F6018281F6
:100D0A009381821793070CF4C9012296EEE00C94A2
:020D1A001B0AB2
:100D1C000F931F93CF93DF93DB012D913C91119790
:100D2C0030FF25C016964D915C91179714962D9116
:100D3C003C9115974217530778F41296ED91FC915C
:100D4C001397808312962D913C9113972F5F3F4FF1
:100D5C0012962D933C93139716962D913C911797C1
:100D6C002F5F3F4F16962D933C93179715C01C96EB
:100D7C00ED91FC911D97309719F48FEF9FEF0CC0FC
:100D8C008B01EC010995892BC1F7F80186819781BC
:100D9C00019686839783CE01DF91CF911F910F919E
:020DAC000895A8
:100DAE00A2E0B0E0EDEDF6E00C94D2095C016B012F
:100DBE00FB0122813381848095808081918189839A
:100DCE009A836680778037FD03C08D7F89839A83EF
:100DDE00FA014081518162817381CE0101967C01BD
:100DEE000AE010E09401C6010E94D00509811A8123
:100DFE00F6014085518541505109481B590BB301ED
:100E0E00680F791F9401C5010E9415089C01F50118
:100E1E008081918190FF06C0F601828193818217B5
:0E0E2E0093070CF4C9012296EEE00C941B0A07
:100E3C0020E040E855E260E274E080E698E00E9431
:100E4C005F070E94B2096CE771E080E00E94830AA0
:100E5C0078940F2EF2E86F2EF1E07F2EF0E08F2EBB
:100E6C00F02DC4E00F2EFDE8CF2EF1E0DF2EF0E0E8
:100E7C00EF2EF02D0E94DA089F938F938F927F9222
:100E8C006F920E94E7091F92CF93EF92DF92CF925D
:100E9C000E94E7092FEF84E39CE0215080409040B2
:100EAC00E1F700C000008DB79EB70A968DBF9EBFBC
:020EBC00E1CF84
:100EBE00FF920F931F93CF93DF93EC018B01F22ED2
:100ECE00BA0180E090E00E949C0720E030E040E80C
:100EDE0051E40E94DB0A9B01AC0160E074E284E7FE
:100EEE009DE40E94D70A20E030E040E05FE30E94DC
:100EFE009E0A0E944E08688779878E8180648E8351
:100F0E00F801218181E090E002C0880F991FFA94C8
:100F1E00E2F7822B8183C0932540D0932640DF9148
:0A0F2E00CF911F910F91FF900895DD
:100F3800E89409C097FB3EF490958095709561956B
:100F48007F4F8F4F9F4F9923A9F0F92F96E9BB2721
:100F58009395F695879577956795B795F111F8CF9D
:100F6800FAF4BB0F11F460FF1BC06F5F7F4F8F4F08
:100F78009F4F16C0882311F096E911C0772321F0FE
:100F88009EE8872F762F05C0662371F096E8862F96
:100F980070E060E02AF09A95660F771F881FDAF7ED
:0A0FA800880F9695879597F9089534
:100FB200A2E8B0E0EFEDF7E00C94D4095C014A013D
:100FC200CF57DF4F68837983C158D040C12CD12CD1
:100FD200CF57DF4FE881F981C158D0408081882303
:100FE200E9F07401860120E830E0AE014F5F5F4F07
:100FF200BE016F577F4FC5010E94CA008C0D9D1D17
:101002008C159D054CF48FE490E080930040909302
:1010120001408FEF9FEF03C06C01DACFC601CE57BC
:08102200DF4FECE00C941D0A05
:10102A00A0E0B0E0EBE1F8E00C94D4096C015B01BC
:10103A007A01E901480181E08822992400FD03C070
:10104A004217530750F0A701B501C6010E9495093E
:10105A00EC16FD0610F0C70117C08E010E191F0904
:10106A000115110541F0B60180E290E00E948E065A
:10107A0001501109F5CF8114910429F4A701B50192
:10108A00C6010E949509CE01CDB7DEB7ECE00C94FB
:02109A001D0A2D
:10109C000E94390988F09F5798F0B92F9927B751BA
:1010AC00B0F0E1F0660F771F881F991F1AF0BA9500
:1010BC00C9F714C0B13091F00E94B20AB1E00895A2
:1010CC000C94B20A672F782F8827B85F39F0B93F94
:1010DC00CCF3869577956795B395D9F73EF49095B3
:0E10EC008095709561957F4F8F4F9F4F0895AF
:1010FA000F931F93CF93DF938C010F5F1F4FFC0158
:10110A008081FB0124853585232B11F0EB0109C071
:10111A008FEF9FEF17C00995892BD1F7F8018191BD
:10112A008F01EC85FD85BE018111F5CF8AE0099515
:10113A0021E030E0892B11F420E030E0882799275C
:0E114A00821B930BDF91CF911F910F9108959F
:10115800DC01ED91FC91119780818A3221F080E0C9
:1011680090E03AE00EC03196ED93FC93DB01ED91EF
:10117800FC911197CF0102968D939C938081918168
:101188000895ED91FC911197208120532A3068F43D
:10119800389FA001399F500D1124CA01820F911D5B
:0C11A8003196ED93FC931197ECCF089565
:1011B4000F931F93CF93DF93E0E0F1E10481158156
:1011C400C681D7810E94790A929582958F7089276A
:1011D4009F7089279E01281B390BD8010E94510A50
:1011E400DC01CB01985FAF4FBF4F072E7CE0B69573
:1011F400A795979587957A95D1F7702D8151914050
:0A120400DF91CF911F910F91089523
:10120E00A0E0B0E0EDE0F9E00C94D6097C01FB0122
:10121E00EA01C901A280B380C480D580008111810A
:10122E00209711F4C8E1D0E4009719F4CE010E9482
:10123E00600AB7FC04C0A816B90608F4C5019601E9
:10124E00AC01BE01C7010E941508CDB7DEB7EAE0BA
:04125E000C941F0AC3
:1012620057FD9058440F551F59F05F3F71F0479555
:10127200880F97FB991F61F09F3F79F0879508953A
:10128200121613061406551FF2CF4695F1DF08C059
:10129200161617061806991FF1CF86957105610576
:0412A200089408950F
:1012A600A1E21A2EAA1BBB1BFD010DC0AA1FBB1F64
:1012B600EE1FFF1FA217B307E407F50720F0A21BD6
:1012C600B30BE40BF50B661F771F881F991F1A9443
:1012D60069F760957095809590959B01AC01BD016D
:0412E600CF01089597
:1012EA00CF93DF93EC0190E0E92FF0E0EE0FFF1FC0
:1012FA00EE5FFF4B8081811102C081810EC0A881FF
:10130A00B9812C91821305C091811196A883B98362
:10131A0001C09F5F9B3040F3892FDF91CF910895E1
:10132A00A0E0B0E0EBE9F9E00C94D8096C01EB011C
:10133A008A017B01E40EF51ECE15DF0541F0899185
:10134A00B601082E000C990B0E948E06F5CFC80133
:0A135A00CDB7DEB7E8E00C94210ADD
:10136400CF93DF9381E00E94C50A80E80E94CB0AF4
:10137400C0E0D6E084E08A8382E4888768E084E081
:101384000E942F0A0E94BF0A0E94B90A8A858160BE
:081394008A87DF91CF910895D3
:10139C002F923F924F925F926F927F928F929F9279
:1013AC00AF92BF92CF92DF92EF92FF920F931F9367
:1013BC00CF93DF93CDB7DEB7CA1BDB0BCDBFDEBF40
:0213CC00099482
:1013CE00A0E0B0E0EDEEF9E00C94DE09AE014B5F6B
:1013DE005F4FFA0161917191AF01E0912740F09159
:1013EE002840808191810E94FF09E2E00C94270A37
:1013FE00A2E0B0E0E5E0FAE00C94DC098C01498350
:10140E005A83AE014F5F5F4F0E94D907F8012081CA
:10141E0024FF02C08FEF9FEF2296E4E00C94250A82
:10142E002A88398848885F846E847D848C849B8466
:10143E00AA84B984C884DF80EE80FD800C811B8174
:10144E00AA81B981CE0FD11DCDBFDEBFED010895AA
:10145E00CF93DF930F92CDB7DEB76983E0E0F6E06E
:10146E009181892B8183898185830F90DF91CF9123
:02147E000895CF
:10148000092E0394000C11F4882352F0BB0F40F492
:10149000BF2B11F460FF04C06F5F7F4F8F4F9F4FD2
:0214A0000895AD
:1014A200A29FB001B39FC001A39F700D811D1124A3
:0E14B200911DB29F700D811D1124911D089592
:1014C000FC01AF014F5F5F4F2081222311F0FA0131
:0C14D000F8CF9F01281B390BC9010895BB
:1014DC00EC010E94E70A0E94E60ACE010E94E80A8B
:0614EC00CE010E94E40A9B
:1014F200E0E0F6E0858580FFFDCF809110069091B7
:041502001106089531
:10150600E0912740F0912840608171810E947D081A
:02151600089536
:101518009C01215631092A31310510F48F7599271C
:02152800089524
:10152A009C01215431092A31310508F48062089559
:0E153A005058BB27AA270E9469050C94400A4E
:0E15480000240A9416161706180609060895C0
:0E15560000240A9412161306140605060895C2
:0E156400E894BB2766277727CB0197F90895F7
:0C157200E0E0F6E0808181608083089555
:0C157E00E0E0F6E0808182608083089548
:0C158A00E0EBF0E09081892B8083089555
:0C159600E0E0F6E09381892B8383089548
:0C15A20097F99F6780E870E060E0089512
:0815AE000E9428040C94400A7D
:0815B6000E9497040C94400A06
:0615BE009FEF80EC089590
:0415C4000C94000083
:0415C8000E94BC00C1
:0215CC00089580
:0215CE0008957E
:0215D00008957C
:1015D20068076C094C836A9074A07AC0008068889E
:0615E20000846C82008110
:0715E800286E756C6C2900F0
:0615EF00286E696C290062
:0215F50029408B
:00000001FF
