:100000000C9483000C9475090C9475090C94750973
:100010000C9475090C9475090C9475090C94750968
:100020000C9475090C9475090C9475090C94750958
:100030000C9475090C9475090C9475090C94750948
:100040000C9475090C9475090C9475090C94750938
:100050000C9475090C9475090C9475090C94750928
:100060000C9475090C9475090C9475090C94750918
:100070000C9475090C9475090C9475090C94750908
:100080000C9475090C9475090C9475090C947509F8
:100090000C9475090C9475090C9475090C947509E8
:1000A0000C9475090C9475090C9475090C947509D8
:1000B0000C9475090C9475090C9475090C947509C8
:1000C0000C9475090C9475090C9475090C947509B8
:1000D0000C9475090C94D7060C9475090C94750949
:1000E0000C9475090C9475090C9475090C94750998
:1000F0000C9475094000410280410241380012F819
:100100004138413C8000809101108F7C8060806884
:1001100098ED94BF8093011011241FBECFEFCDBF87
:10012000DFE7DEBFE4EFF0E041E019C0B791A7914F
:1001300037912791079107FD0EC097918791EF01A5
:10014000F92FE82F0BBF07900D92A217B307D9F72D
:10015000FE011BBE04C01D92A217B307E1F7E530F4
:10016000F40721F70E944C050C941A09F894FFCF6C
:1001700048656C6C6F0054454D5045524154555282
:10018000452120256443200A00543A2025640A00B2
:10019000AEE0B0E0EEECF0E00C947C084C016B01BA
:1001A00019821A828FEF9FEF8B839C831D821E82A0
:1001B0004F83588729873A87A12CB12CD6016D909F
:1001C0007C90F301EA0DFB1D808181110FC0D601E7
:1001D000ED93FC938081853209F0D3C13F01BFEFDD
:1001E0006B1A7B0AF6016082718219C0853279F33D
:1001F000B401082E000C990B0E9498054FEFA41A29
:10020000B40ADCCF8C32ACF08D32F9F489819A815A
:10021000816089839A833196D601ED93FC93D60150
:10022000ED91FC9180818B3269F789819A8184609C
:10023000F0CF803221F489819A818860EACF8332BD
:1002400051F489819A818061E4CF803321F48981DE
:100250009A818260DECFB701C6010E943D078D837F
:100260009E8397FF0BC029813A81B1E02B27298318
:100270003A839195819591098D839E8389819A8195
:1002800080FF03C08D7F89839A83D601ED91FC9115
:10029000119780818E3249F43196ED93FC93B7012A
:1002A000C6010E943D078B839C83C6010E940408FF
:1002B000582ED601ED91FC918081082E000C990BEF
:1002C0000E944909893609F443C084F4833609F44D
:1002D00002C134F4853209F427C18136E1F030C11E
:1002E0008436B1F188360CF4D9C02AC1803709F4BC
:1002F0009AC03CF48E3609F4BCC08F3609F461C054
:100300001FC1853709F440C0883709F476C08337A8
:1003100009F016C1F3C0652D70E0A701CE010B9660
:100320000E940000892B09F426C1D601ED91FC91B1
:100330001197CF0101968D939C932081AE01455F6B
:100340005F4FBE016F5F7F4FC4010E94000010C16C
:10035000652D70E0970141E050E0CE010B960E94C0
:100360002604892B09F407C1F60180819181019649
:1003700080839183AE01455F5F4FBE016F5F7F4F0A
:10038000C4010E94B403F4C0652D70E0970140E001
:1003900050E0CE010B960E942604892B09F4EBC095
:1003A000D6018D919C91119701968D939C93AE01EE
:1003B000455F5F4FBE016F5F7F4FC4010E94E10543
:1003C000D7C0652D70E0970140E050E0CE010B965C
:1003D0000E942604892B09F4CEC0F6018081918108
:1003E000019680839183AE01455F5F4FBE016F5FD1
:1003F0007F4FC4010E94F304BBC0652D70E09701DC
:1004000040E050E0CE010B960E942604892B09F4AF
:10041000B2C0D601ED91FC911197CF0101968D9359
:100420009C9320811CC0970140E050E060EF70E099
:10043000CE010B960E942604892B09F49CC0F6017C
:10044000808191810196808391838B859C85892B06
:1004500029F420E030E040E351E484C028E7AE0115
:10046000455F5F4FBE016F5F7F4FC4010E94C602B0
:100470007FC0A501400F511F652D70E09701CE018F
:100480000B960E940000892B09F475C0D6018D914E
:100490009C91119701968D939C9373C0652D70E08C
:1004A000A701CE010B960E940000892B09F463C0BE
:1004B000D601ED91FC911197CF0101968D939C93FC
:1004C0002081AE01455F5F4FBE016F5F7F4FC4016A
:1004D0000E9400004DC0B0E85B124DC0F601808163
:1004E0009181019680839183D701ED91FC911197C1
:1004F000CF0102968D939C93808120C0B0E85B125F
:100500003AC0F60180819181019680839183D70161
:10051000ED91FC911197CF0102968D939C934081B0
:10052000518120E030E01EC0B0E85B1224C0F6012B
:10053000208131812F5F3F4F208331838B870DC016
:1005400085E28B87D6016D927C9219821A821D8278
:100550001E828FEF9FEF8B839C8321E030E0AE0102
:10056000455F5F4FBE016F5F7F4FC4010E949807D8
:100570008A0D9B1D07C0F6018081918101968083C1
:0C0580009183C5012E96EFE00C94C50895
:10058C00AFE0B0E0ECECF2E00C9479081C016B01EC
:10059C0049835A832B83FB018281938184809580CC
:1005AC0000811181A680B78097FD02C00D7F02C02B
:1005BC0081E090E0E981FA81408051806280738013
:1005CC009801207133272C833D83740104FF08C0EC
:1005DC00411451046104710419F032E0E31AF1087A
:1005EC00F801E870FF27EE83FF8303FF03C0F1E0FF
:1005FC00EF1AF108F6010084F185E02D3197EE87B2
:10060C00FF87EA0DFB1D10829C012E193F092887DC
:10061C003987C801827099278A879B87EB818E2F37
:10062C00EE0F990B9C01215431092C873D872E85A7
:10063C003F852230310530F48C819D81892B09F066
:10064C0042C05CC0411451046104710461F18E8597
:10065C009F8501978E879F87C2018F7099278A305B
:10066C00910514F4C09602C0895A9F4FEC85FD8504
:10067C007A9748F49C012062215631092A313105C0
:10068C0010F40E943809EE85FF85EA0DFB1D80836E
:10069C00F1E0EF1AF10884E076946794579447944C
:1006AC008A95D1F7C4CF888599858E0D9F1D181614
:1006BC0019066CF21E141F040CF0BECFEA85FB85E4
:1006CC00EF2B29F6B9CFE981FA8180819181A28142
:1006DC00B381892B8A2B8B2B89F0EE85FF85EA0D54
:1006EC00FB1D31972B8120838E859F8502978E87EA
:1006FC009F87FC01EA0DFB1D80E38083EE81FF8167
:10070C00EF2B59F02E853F85215031092E873F87DD
:10071C00F901EA0DFB1D80E28083F60140855185CD
:10072C00415051092E853F85421B530BB9016A0D6F
:10073C007B1D9401C1010E949E069C01F1018081E8
:10074C00918190FF06C0F6018281938182179307F5
:0C075C000CF4C9012F96E2E10C94C208D5
:10076800A2E0B0E0EAEBF3E00C9479083C016B01FD
:10077800FB0122813381A480B580808191818983A6
:100788009A8386809780FA01208031804280538046
:10079800B201A10157FE07C044275527BA014219E3
:1007A80053096409750937FD03C08D7F89839A83CE
:1007B800950157FC05C0898182FD02C083FF02C0F4
:1007C80021503109CE0101967C010AE010E0C601F2
:1007D8000E948E0457FC03C0298122FF0AC001979A
:1007E800F401E80FF91F57FC02C02BE209C02DE203
:1007F80007C023FF06C00197F401E80FF91F20E2A4
:10080800208309811A81F60140855185415051099B
:10081800481B590BB401680F791F9501C3010E9449
:100828009E069C01F3018081918190FF06C0F6012C
:1008380082819381821793070CF4C9012296E2E121
:040848000C94C20842
:10084C00CF93DF93DC01F90168387105F1F05CF4AA
:10085C006138710561F164387105A1F16038710579
:10086C0009F051C02FC0603C710509F441C0603FD4
:10087C007105F1F1603A710509F045C0C081D18173
:10088C00CE0102968083918325C0C081D181CE0197
:10089C00029680839183452B39F04881042E000CFD
:1008AC00550B660B770B1CC0488150E029C0C081EA
:1008BC00D181CE01049680839183488159816A81CC
:1008CC007B810EC0C081D181CE0102968083918341
:1008DC00452BA1F048815981052E000C660B770B36
:1008EC004D935D936D937C93139781E090E00DC0D5
:1008FC00C081D181CE010296808391834881598138
:10090C0060E070E0EDCF80E090E0DF91CF91089552
:10091C00A0E0B0E0E4E9F4E00C947B08DC012801F1
:10092C001696AD90BC901797F70180819181129625
:10093C00ED91FC9113971896CD91DC911997219715
:10094C00F7FF02C0E1E0F0E0CA0DDB1D188269017F
:10095C00A1E0B0E08F01021B130B4C01F2E08F22DF
:10096C009924052C000C66087708CE018A199B097E
:10097C00CA15DB0519F1411551056105710589F0A1
:10098C00CB01BA01A30192010E94C207CA01A62F92
:10099C00B72F605D6A9341E0C41AD108A901BC016C
:1009AC00E4CF98012C0D3D1D121613064CF31C14AC
:1009BC001D0434F48114910419F702C080E090E016
:1009CC00AB2B31F4F701208131812F7E20833183D1
:0A09DC00CDB7DEB7E0E10C94C408CB
:1009E600A2E0B0E0E9EFF4E00C947D084C016B0165
:1009F600FB012281338164807580808191818983A6
:100A06009A83A680B78037FD03C08D7F89839A833A
:100A1600FA014081518162817381CE0101967C0188
:100A260008E010E09301C6010E948E04298124FF8C
:100A360006C00197F501E80FF91F20E320832981FD
:100A460023FF06C00197F501E80FF91F20E2208376
:100A560009811A81F6014085518541505109481B8B
:100A6600590BB501680F791F9301C4010E949E06B8
:100A76009C01F4018081918190FF06C0F60182817C
:100A86009381821793070CF4C9012296EEE00C9429
:020A9600C60890
:100A9800CF93DF93CDB7DEB7A097CDBFDEBF0E945F
:100AA800E40720E040E060E274E080E698E00E941D
:100AB80041080E945D0860E771E080E00E942F090C
:100AC80078940F2EF6E76F2EF1E07F2EF0E08F2E50
:100AD800F02D8E010F5F1F4F0F2EF9E8CF2EF1E09A
:100AE800DF2EF0E0EF2EF02D0E946B079F938F937F
:100AF8008F927F926F921F930F930E94DA080E9441
:100B08006B079F938F93EF92DF92CF920E94920888
:100B18002FE788E391E0215080409040E1F700C042
:080B28000000CDBFDEBFE0CFED
:100B30000F931F93CF93DF93DB012D913C9111977E
:100B400030FF25C016964D915C91179714962D9104
:100B50003C9115974217530778F41296ED91FC914A
:100B60001397808312962D913C9113972F5F3F4FDF
:100B700012962D933C93139716962D913C911797AF
:100B80002F5F3F4F16962D933C93179715C01C96D9
:100B9000ED91FC911D97309719F48FEF9FEF0CC0EA
:100BA0008B01EC010995892BC1F7F80186819781AA
:100BB000019686839783CE01DF91CF911F910F918C
:020BC000089596
:100BC200A2E0B0E0E7EEF5E00C947D085C016B0179
:100BD200FB01228133818480958080819181898388
:100BE2009A836680778037FD03C08D7F89839A83DD
:100BF200FA014081518162817381CE0101967C01AB
:100C02000AE010E09401C6010E948E0409811A8153
:100C1200F6014085518541505109481B590BB301DA
:100C2200680F791F9401C5010E949E069C01F5017F
:100C32008081918190FF06C0F601828193818217A3
:0E0C420093070CF4C9012296EEE00C94C6084C
:100C5000A2E8B0E0EEE2F6E00C947F085C014A0105
:100C6000CF57DF4F68837983C158D040C12CD12C36
:100C7000CF57DF4FE881F981C158D0408081882368
:100C8000E9F07401860120E830E0AE014F5F5F4F6C
:100C9000BE016F577F4FC5010E94C8008C0D9D1D7E
:100CA0008C159D054CF48FE490E080930040909368
:100CB00001408FEF9FEF03C06C01DACFC601CE5722
:080CC000DF4FECE00C94C808C2
:100CC800A0E1B0E0EAE6F6E00C948508FB01BA0181
:100CD800AE014F5F5F4F7A0140E1D7011D924A95FF
:100CE800E9F742E051E049835A838B839C83F7FFFD
:100CF80009C08FE490E080930040909301408FEF0B
:100D08009FEF14C0A9018C013197ED83FE83C701C1
:100D18000E94AA084F8158852D813E8142175307AA
:100D280008F49A01F801E20FF31F10826096E6E0DA
:040D38000C94CE0841
:100D3C00A0E0B0E0E4EAF6E00C947F086C015B0103
:100D4C007A01E901480181E08822992400FD03C061
:100D5C004217530750F0A701B501C6010E942408A1
:100D6C00EC16FD0610F0C70117C08E010E191F09F5
:100D7C000115110541F0B60180E290E00E94980542
:100D8C0001501109F5CF8114910429F4A701B50183
:100D9C00C6010E942408CE01CDB7DEB7ECE00C945E
:020DAC00C80875
:100DAE001F921FB61F9211248F938BB78F939F9311
:100DBE00EF93FF93809160088C3319F08E3321F0FE
:100DCE000DC010923B4119C081E080933A41E091F1
:100DDE003B41F0E0EE5FFF4B10820FC090913B4124
:100DEE009F3F59F0E0913B41F0E0EE5FFF4B808377
:100DFE0080913B418F5F80933B41FF91EF919F919B
:0E0E0E008F918BBF8F911F901FBE1F90189564
:100E1C000F931F93CF93DF938C010F5F1F4FFC0138
:100E2C008081FB0124853585232B11F0EB0109C052
:100E3C008FEF9FEF17C00995892BD1F7F80181919E
:100E4C008F01EC85FD85BE018111F5CF8AE00995F6
:100E5C0021E030E0892B11F420E030E0882799273D
:0E0E6C00821B930BDF91CF911F910F91089580
:100E7A00DC01ED91FC91119780818A3221F080E0AA
:100E8A0090E03AE00EC03196ED93FC93DB01ED91D0
:100E9A00FC911197CF0102968D939C938081918149
:100EAA000895ED91FC911197208120532A3068F41E
:100EBA00389FA001399F500D1124CA01820F911D3C
:0C0ECA003196ED93FC931197ECCF089546
:100ED6000F931F93CF93DF93E0E0F1E10481158137
:100EE600C681D7810E9425099695879596958795FF
:100EF600969587959E01281B390BD8010E94FD08FF
:100F0600DC01CB01985FAF4FBF4F072E7CE0B69553
:100F1600A795979587957A95D1F7702D8151914030
:0A0F2600DF91CF911F910F91089504
:100F3000A0E0B0E0EEE9F7E00C9481087C01FB0151
:100F4000EA01C901A280B380C480D58000811181EB
:100F5000209711F4C9E2D1E4009719F4CE010E9460
:100F60000C09B7FC04C0A816B90608F4C50196011F
:100F7000AC01BE01C7010E949E06CDB7DEB7EAE014
:040F80000C94CA08FB
:100F8400A1E21A2EAA1BBB1BFD010DC0AA1FBB1F89
:100F9400EE1FFF1FA217B307E407F50720F0A21BFB
:100FA400B30BE40BF50B661F771F881F991F1A9468
:100FB40069F760957095809590959B01AC01BD0192
:040FC400CF010895BC
:100FC800E0E6F8E080E895E2808791878681806492
:100FD8008683A0E2B4E08C9181608C931B968C91FF
:100FE8001B9788601B968C93858180688583E09128
:100FF8003641F091374188E191E4808391830895E7
:10100800CF93DF93EC0190E0E92FF0E0EE0FFF1FA4
:10101800EE5FFE4B8081811102C081810EC0A881E4
:10102800B9812C91821305C091811196A883B98347
:1010380001C09F5F9B3040F3892FDF91CF910895C6
:10104800A0E0B0E0EAE2F8E00C9483086C01EB0160
:101058008A017B01E40EF51ECE15DF0541F089916A
:10106800B601082E000C990B0E949805F5CFC8010F
:0A107800CDB7DEB7E8E00C94CC0819
:10108200DC01FB0180E895E218968D939C931997F9
:1010920016968C911697806416968C93208181E027
:1010A20090E002C0880F991F4A95E2F7822B808355
:0810B20083858860838708959F
:1010BA00CF93DF9381E00E946409C0E0D6E084E028
:1010CA008A8382E488870E945E0980E80E946A090E
:1010DA0064E088E00E94EC080E9458098A858160D1
:0810EA008A87DF91CF91089580
:1010F2002F923F924F925F926F927F928F929F9226
:10110200AF92BF92CF92DF92EF92FF920F931F9313
:10111200CF93DF93CDB7DEB7CA1BDB0BCDBFDEBFEC
:0211220009942E
:10112400A0E0B0E0E8E9F8E00C948908AE014B5F78
:101134005F4FFA0161917191AF01E0913641F091F5
:101144003741808191810E94AA08E2E00C94D20880
:10115400A2E0B0E0E0EBF8E00C9487088C0149834E
:101164005A83AE014F5F5F4F0E942806F801208129
:1011740024FF02C08FEF9FEF2296E4E00C94D00886
:101184002A88398848885F846E847D848C849B8413
:10119400AA84B984C884DF80EE80FD800C811B8121
:1011A400AA81B981CE0FD11DCDBFDEBFED01089557
:1011B400A0E0B0E0E0EEF8E00C948908AE01475FEF
:1011C4005F4F6F8178858D819E810E945109E2E095
:0411D4000C94D2089D
:1011D800CF93DF930F92CDB7DEB769832981E0E023
:1011E800F6E09181922B918385830F90DF91CF91C7
:0211F800089558
:1011FA00A29FB001B39FC001A39F700D811D11244E
:0E120A00911DB29F700D811D1124911D08953C
:10121800FC01AF014F5F5F4F2081222311F0FA01DB
:0C122800F8CF9F01281B390BC901089565
:10123400EC010E947A090E947909CE010E947B097F
:06124400CE010E947709B3
:10124A00E0E0F6E0858580FFFDCF80911006909161
:04125A0011060895DC
:10125E00E0913641F0913741608171810E940E0715
:02126E000895E1
:101270009C01215631092A31310510F48F759927C7
:021280000895CF
:10128200E0E6F8E0948195FFFDCF8093620808952F
:101292009C01215431092A31310508F480620895F4
:0E12A2009A01AB016FEF7FE70E94640608958A
:0C12B000E0E0F6E080818160808308951A
:0C12BC00E0E0F6E080818260808308950D
:0C12C800E0EBF0E09081892B808308951A
:0C12D400E0E0F6E09381892B838308950D
:0A12E0000E94410980E090E00895AB
:0412EA000C94000060
:0412EE000E94B600A4
:0212F20008955D
:0212F40008955B
:0212F600089559
:1012F80068076C094C836A9074A07AC0008068887B
:0613080000846C820081EC
:10130E000300000000000000000000000070090053
:01131E0000CE
:07131F00286E756C6C2900BB
:06132600286E696C29002D
:02132C00384146
:00000001FF
