:100000000C947A000C94A8000C94A8000C94A800FE
:100010000C94A8000C94A8000C94A8000C94A800C0
:100020000C94A8000C94A8000C94A8000C94A800B0
:100030000C94A8000C94A8000C94A8000C94A800A0
:100040000C94A8000C94A8000C94A8000C94A80090
:100050000C94A8000C94A8000C94A8000C94A80080
:100060000C94A8000C94A8000C94A8000C94A80070
:100070000C94A8000C94A8000C94A8000C94A80060
:100080000C94A8000C94A8000C94A8000C94A80050
:100090000C94A8000C94A8000C94A8000C94A80040
:1000A0000C94A8000C94A8000C94A8000C94A80030
:1000B0000C94A8000C94A8000C94A8000C94A80020
:1000C0000C94A8000C94A8000C94A8000C94A80010
:1000D0000C94A8000C94A8000C94A8000C94A80000
:1000E0000C94A8000C94A8000C94A8000C94A800F0
:1000F0000C94A80011241FBECFEFCDBFDFE7DEBFF9
:0C0100000E9486000C949500F894FFCF3C
:10010C0088E0809321040E94A000E0E2F4E098E0F3
:0E011C00808582FF02C09583FBCF9683F9CFCA
:10012A00EC010E94AD000E94AC00CE010E94AE001C
:06013A00CE010E94AA00A4
:10014000E0E2F4E084E0828382898860828B089513
:040150000C9400000B
:040154000E94840081
:02015800089508
:02015A00089506
:02015C00089504
:00000001FF
