:100000000C947A000C949C000C949C000C949C0022
:100010000C949C000C949C000C949C000C949C00F0
:100020000C949C000C949C000C949C000C949C00E0
:100030000C949C000C949C000C949C000C949C00D0
:100040000C949C000C949C000C949C000C949C00C0
:100050000C949C000C949C000C949C000C949C00B0
:100060000C949C000C949C000C949C000C949C00A0
:100070000C949C000C949C000C949C000C949C0090
:100080000C949C000C949C000C949C000C949C0080
:100090000C949C000C949C000C949C000C949C0070
:1000A0000C949C000C949C000C949C000C949C0060
:1000B0000C949C000C949C000C949C000C949C0050
:1000C0000C949C000C949C000C949C000C949C0040
:1000D0000C949C000C949C000C949C000C949C0030
:1000E0000C949C000C949C000C949C000C949C0020
:1000F0000C949C0011241FBECFEFCDBFDFE7DEBF05
:0C0100000E9497000C948600F894FFCF3A
:10010C00EC010E94A1000E94A000CE010E94A2005E
:06011C00CE010E949E00CE
:0C012200E0E2F4E08081886080830895B2
:0A012E000E9491000E949100FDCF95
:040138000C94000023
:04013C000E94840099
:02014000089520
:0201420008951E
:0201440008951C
:00000001FF
