:100000000C947A000C94AA000C94AA000C94AA00F8
:100010000C94AA000C94AA000C94AA000C94AA00B8
:100020000C94AA000C94AA000C94AA000C94AA00A8
:100030000C94AA000C94AA000C94AA000C94AA0098
:100040000C94AA000C94AA000C94AA000C94AA0088
:100050000C94AA000C94AA000C94AA000C94AA0078
:100060000C94AA000C94AA000C94AA000C94AA0068
:100070000C94AA000C94AA000C94AA000C94AA0058
:100080000C94AA000C94AA000C94AA000C94AA0048
:100090000C94AA000C94AA000C94AA000C94AA0038
:1000A0000C94AA000C94AA000C94AA000C94AA0028
:1000B0000C94AA000C94AA000C94AA000C94AA0018
:1000C0000C94AA000C94AA000C94AA000C94AA0008
:1000D0000C94AA000C94AA000C94AA000C94AA00F8
:1000E0000C94AA000C94AA000C94AA000C94AA00E8
:1000F0000C94AA0011241FBECFEFCDBFDFE7DEBFF7
:0C0100000E9486000C949700F894FFCF3A
:10010C0088E0809321040E94A200E0E2F4E098E0F1
:10011C00292F2183808582FF02C09583FACF968395
:02012C00F8CF0A
:10012E00EC010E94AF000E94AE00CE010E94B00012
:06013E00CE010E94AC009E
:10014400E0E2F4E084E0828382898860828B08950F
:040154000C94000007
:040158000E9484007D
:02015C00089504
:02015E00089502
:02016000089500
:00000001FF
