:100000000C947D000C94F4000C94F4000C94F40017
:100010000C94F4000C94F4000C94F4000C94F40090
:100020000C94F4000C94F4000C94F4000C94F40080
:100030000C94F4000C94F4000C94F4000C94F40070
:100040000C94F4000C94F4000C94F4000C94F40060
:100050000C94F4000C94F4000C94F4000C94F40050
:100060000C94F4000C94F4000C94F4000C94F40040
:100070000C94F4000C94F4000C94F4000C94F40030
:100080000C94F4000C94F4000C94F4000C94F40020
:100090000C94F4000C94F4000C94F4000C94F40010
:1000A0000C94F4000C94F4000C94F4000C94F40000
:1000B0000C94F4000C94A9000C94F4000C94F4003B
:1000C0000C94F4000C94F4000C94F4000C94F400E0
:1000D0000C94F4000C94F4000C94F4000C94F400D0
:1000E0000C94F4000C94F4000C94F4000C94F400C0
:1000F0000C94F40040004001800011241FBECFEF9B
:10010000CDBFDFE7DEBFE4EFF0E040E019C0B7911C
:10011000A79137912791079107FD0EC0979187917D
:10012000EF01F92FE82F0BBF07900D92A217B3072D
:10013000D9F7FE011BBE04C01D92A217B307E1F759
:10014000E93FF40721F70E94CE000C94E100F894F7
:02015000FFCFDF
:100152008F938FB78F938BB78F939F93EF93FF9369
:100162009091004081E0892780930040882321F00C
:1001720084E08093250403C084E080932604E0E4B5
:10018200F4E0818584608187FF91EF919F918F9147
:0A0192008BBF8F918FBF8F911895DE
:10019C0088E0809321040E94EC00E0E4F4E0828982
:1001AC008360828B8185816081877894E0E2F4E0C2
:0601BC0088E08183FECF04
:1001C200EC010E94F9000E94F800CE010E94FA00A0
:0601D200CE010E94F600C0
:1001D800E0E2F4E084E0828382898860828B08957B
:0401E8000C94000073
:0401EC000E94A700C6
:0201F000089570
:0201F20008956E
:0201F40008956C
:00000001FF
