:100000000C947D000C94FD000C94FD000C94FD00FC
:100010000C94FD000C94FD000C94FD000C94FD006C
:100020000C94FD000C94FD000C94FD000C94FD005C
:100030000C94FD000C94FD000C94FD000C94FD004C
:100040000C94FD000C94FD000C94FD000C94FD003C
:100050000C94FD000C94FD000C94FD000C94FD002C
:100060000C94FD000C94FD000C94FD000C94FD001C
:100070000C94FD000C94FD000C94FD000C94FD000C
:100080000C94FD000C94FD000C94FD000C94FD00FC
:100090000C94FD000C94FD000C94FD000C94FD00EC
:1000A0000C94FD000C94FD000C94FD000C94FD00DC
:1000B0000C94FD000C94B2000C94FD000C94FD0017
:1000C0000C94FD000C94FD000C94FD000C94FD00BC
:1000D0000C94FD000C94FD000C94FD000C94FD00AC
:1000E0000C94FD000C94FD000C94FD000C94FD009C
:1000F0000C94FD00400040018000809101108F7C35
:100100008060806898ED94BF8093011011241FBE19
:10011000CFEFCDBFDFE7DEBFE4EFF0E040E019C096
:10012000B791A79137912791079107FD0EC097913D
:100130008791EF01F92FE82F0BBF07900D92A217BF
:10014000B307D9F7FE011BBE04C01D92A217B30767
:10015000E1F7E93FF40721F70E94D7000C94EA0089
:04016000F894FFCF41
:100164008F938FB78F938BB78F939F93EF93FF9357
:100174009091004081E0892780930040882321F0FA
:1001840084E08093250403C084E080932604E0E4A3
:10019400F4E0818584608187FF91EF919F918F9135
:0A01A4008BBF8F918FBF8F911895CC
:1001AE0088E0809321040E94F500E0E4F4E0828967
:1001BE008360828B8185816081877894E0E2F4E0B0
:0601CE0088E08183FECFF2
:1001D400EC010E9402010E940101CE010E94030170
:0601E400CE010E94FF00A5
:1001EA00E0E2F4E084E0828382898860828B089569
:0401FA000C94000061
:0401FE000E94B000AB
:0202020008955D
:0202040008955B
:02020600089559
:00000001FF
